{
  "_format": "hh-sol-artifact-1",
  "contractName": "AdvancedCalculator",
  "sourceName": "contracts/BasicCalculator.sol",
  "abi": [
    {
      "inputs": [],
      "name": "getResult",
      "outputs": [
        {
          "internalType": "uint256",
          "name": "",
          "type": "uint256"
        }
      ],
      "stateMutability": "view",
      "type": "function"
    },
    {
      "inputs": [
        {
          "internalType": "uint256",
          "name": "a",
          "type": "uint256"
        },
        {
          "internalType": "uint256",
          "name": "b",
          "type": "uint256"
        },
        {
          "internalType": "uint8",
          "name": "operation",
          "type": "uint8"
        }
      ],
      "name": "performOperation",
      "outputs": [],
      "stateMutability": "nonpayable",
      "type": "function"
    }
  ],
  "bytecode": "0x608060405234801561001057600080fd5b50610243806100206000396000f3fe608060405234801561001057600080fd5b50600436106100365760003560e01c8063d595b5b71461003b578063de29278914610050575b600080fd5b61004e610049366004610153565b610065565b005b60005460405190815260200160405180910390f35b8060ff1660010361007f5761007a8383610124565b505050565b8060ff166002036100945761007a8383610135565b8060ff166003036100a95761007a838361013f565b8060ff166004036100be5761007a8383610149565b6040517f08c379a000000000000000000000000000000000000000000000000000000000815260206004820152600660248201527f756e6b6f776e0000000000000000000000000000000000000000000000000000604482015260640160405180910390fd5b61012e81836101a8565b6000555050565b61012e81836101c1565b61012e81836101d4565b61012e81836101eb565b60008060006060848603121561016857600080fd5b8335925060208401359150604084013560ff8116811461018757600080fd5b809150509250925092565b634e487b7160e01b600052601160045260246000fd5b808201808211156101bb576101bb610192565b92915050565b818103818111156101bb576101bb610192565b80820281158282048414176101bb576101bb610192565b60008261020857634e487b7160e01b600052601260045260246000fd5b50049056fea2646970667358221220e732128c32438bb169ff72637e5917c995cfa86ea9e8cdc801291ace817add2364736f6c63430008180033",
  "linkReferences": {},
  "deployedLinkReferences": {}
}