{
  "contracts/VulnerableReentrancy.sol": {
    "VulnerableReentrancy": {
      "abi": [
        {
          "inputs": [
            {
              "internalType": "address",
              "name": "",
              "type": "address"
            }
          ],
          "name": "balances",
          "outputs": [
            {
              "internalType": "uint256",
              "name": "",
              "type": "uint256"
            }
          ],
          "stateMutability": "view",
          "type": "function"
        },
        {
          "inputs": [],
          "name": "deposit",
          "outputs": [],
          "stateMutability": "payable",
          "type": "function"
        },
        {
          "inputs": [
            {
              "internalType": "uint256",
              "name": "_amountt",
              "type": "uint256"
            }
          ],
          "name": "withdraw",
          "outputs": [],
          "stateMutability": "nonpayable",
          "type": "function"
        }
      ],
      "evm": {
        "bytecode": {
          "linkReferences": {},
          "object": "608060405234801561001057600080fd5b5061032b806100206000396000f3fe6080604052600436106100345760003560e01c806327e235e3146100395780632e1a7d4d14610078578063d0e30db01461009a575b600080fd5b34801561004557600080fd5b50610066610054366004610244565b60006020819052908152604090205481565b60405190815260200160405180910390f35b34801561008457600080fd5b50610098610093366004610281565b6100a2565b005b6100986101c6565b336000908152602081905260409020548111156101065760405162461bcd60e51b815260206004820152601460248201527f496e73756666696369656e742062616c616e636500000000000000000000000060448201526064015b60405180910390fd5b604051600090339083908381818185875af1925050503d8060008114610148576040519150601f19603f3d011682016040523d82523d6000602084013e61014d565b606091505b505090508061019e5760405162461bcd60e51b815260206004820152600f60248201527f5472616e73666572206661696c6564000000000000000000000000000000000060448201526064016100fd565b33600090815260208190526040812080548492906101bd9084906102c9565b90915550505050565b67016345785d8a000034101561021e5760405162461bcd60e51b815260206004820152600a60248201527f4e6f7420656e6f7567680000000000000000000000000000000000000000000060448201526064016100fd565b336000908152602081905260408120805434929061023d9084906102e2565b9091555050565b60006020828403121561025657600080fd5b813573ffffffffffffffffffffffffffffffffffffffff8116811461027a57600080fd5b9392505050565b60006020828403121561029357600080fd5b5035919050565b7f4e487b7100000000000000000000000000000000000000000000000000000000600052601160045260246000fd5b818103818111156102dc576102dc61029a565b92915050565b808201808211156102dc576102dc61029a56fea2646970667358221220668acdf89477414ebd2f3781ca2927d4257714174d51c352462d23093243bf9564736f6c63430008180033",
          "opcodes": "PUSH1 0x80 PUSH1 0x40 MSTORE CALLVALUE DUP1 ISZERO PUSH2 0x10 JUMPI PUSH1 0x0 DUP1 REVERT JUMPDEST POP PUSH2 0x32B DUP1 PUSH2 0x20 PUSH1 0x0 CODECOPY PUSH1 0x0 RETURN INVALID PUSH1 0x80 PUSH1 0x40 MSTORE PUSH1 0x4 CALLDATASIZE LT PUSH2 0x34 JUMPI PUSH1 0x0 CALLDATALOAD PUSH1 0xE0 SHR DUP1 PUSH4 0x27E235E3 EQ PUSH2 0x39 JUMPI DUP1 PUSH4 0x2E1A7D4D EQ PUSH2 0x78 JUMPI DUP1 PUSH4 0xD0E30DB0 EQ PUSH2 0x9A JUMPI JUMPDEST PUSH1 0x0 DUP1 REVERT JUMPDEST CALLVALUE DUP1 ISZERO PUSH2 0x45 JUMPI PUSH1 0x0 DUP1 REVERT JUMPDEST POP PUSH2 0x66 PUSH2 0x54 CALLDATASIZE PUSH1 0x4 PUSH2 0x244 JUMP JUMPDEST PUSH1 0x0 PUSH1 0x20 DUP2 SWAP1 MSTORE SWAP1 DUP2 MSTORE PUSH1 0x40 SWAP1 KECCAK256 SLOAD DUP2 JUMP JUMPDEST PUSH1 0x40 MLOAD SWAP1 DUP2 MSTORE PUSH1 0x20 ADD PUSH1 0x40 MLOAD DUP1 SWAP2 SUB SWAP1 RETURN JUMPDEST CALLVALUE DUP1 ISZERO PUSH2 0x84 JUMPI PUSH1 0x0 DUP1 REVERT JUMPDEST POP PUSH2 0x98 PUSH2 0x93 CALLDATASIZE PUSH1 0x4 PUSH2 0x281 JUMP JUMPDEST PUSH2 0xA2 JUMP JUMPDEST STOP JUMPDEST PUSH2 0x98 PUSH2 0x1C6 JUMP JUMPDEST CALLER PUSH1 0x0 SWAP1 DUP2 MSTORE PUSH1 0x20 DUP2 SWAP1 MSTORE PUSH1 0x40 SWAP1 KECCAK256 SLOAD DUP2 GT ISZERO PUSH2 0x106 JUMPI PUSH1 0x40 MLOAD PUSH3 0x461BCD PUSH1 0xE5 SHL DUP2 MSTORE PUSH1 0x20 PUSH1 0x4 DUP3 ADD MSTORE PUSH1 0x14 PUSH1 0x24 DUP3 ADD MSTORE PUSH32 0x496E73756666696369656E742062616C616E6365000000000000000000000000 PUSH1 0x44 DUP3 ADD MSTORE PUSH1 0x64 ADD JUMPDEST PUSH1 0x40 MLOAD DUP1 SWAP2 SUB SWAP1 REVERT JUMPDEST PUSH1 0x40 MLOAD PUSH1 0x0 SWAP1 CALLER SWAP1 DUP4 SWAP1 DUP4 DUP2 DUP2 DUP2 DUP6 DUP8 GAS CALL SWAP3 POP POP POP RETURNDATASIZE DUP1 PUSH1 0x0 DUP2 EQ PUSH2 0x148 JUMPI PUSH1 0x40 MLOAD SWAP2 POP PUSH1 0x1F NOT PUSH1 0x3F RETURNDATASIZE ADD AND DUP3 ADD PUSH1 0x40 MSTORE RETURNDATASIZE DUP3 MSTORE RETURNDATASIZE PUSH1 0x0 PUSH1 0x20 DUP5 ADD RETURNDATACOPY PUSH2 0x14D JUMP JUMPDEST PUSH1 0x60 SWAP2 POP JUMPDEST POP POP SWAP1 POP DUP1 PUSH2 0x19E JUMPI PUSH1 0x40 MLOAD PUSH3 0x461BCD PUSH1 0xE5 SHL DUP2 MSTORE PUSH1 0x20 PUSH1 0x4 DUP3 ADD MSTORE PUSH1 0xF PUSH1 0x24 DUP3 ADD MSTORE PUSH32 0x5472616E73666572206661696C65640000000000000000000000000000000000 PUSH1 0x44 DUP3 ADD MSTORE PUSH1 0x64 ADD PUSH2 0xFD JUMP JUMPDEST CALLER PUSH1 0x0 SWAP1 DUP2 MSTORE PUSH1 0x20 DUP2 SWAP1 MSTORE PUSH1 0x40 DUP2 KECCAK256 DUP1 SLOAD DUP5 SWAP3 SWAP1 PUSH2 0x1BD SWAP1 DUP5 SWAP1 PUSH2 0x2C9 JUMP JUMPDEST SWAP1 SWAP2 SSTORE POP POP POP POP JUMP JUMPDEST PUSH8 0x16345785D8A0000 CALLVALUE LT ISZERO PUSH2 0x21E JUMPI PUSH1 0x40 MLOAD PUSH3 0x461BCD PUSH1 0xE5 SHL DUP2 MSTORE PUSH1 0x20 PUSH1 0x4 DUP3 ADD MSTORE PUSH1 0xA PUSH1 0x24 DUP3 ADD MSTORE PUSH32 0x4E6F7420656E6F75676800000000000000000000000000000000000000000000 PUSH1 0x44 DUP3 ADD MSTORE PUSH1 0x64 ADD PUSH2 0xFD JUMP JUMPDEST CALLER PUSH1 0x0 SWAP1 DUP2 MSTORE PUSH1 0x20 DUP2 SWAP1 MSTORE PUSH1 0x40 DUP2 KECCAK256 DUP1 SLOAD CALLVALUE SWAP3 SWAP1 PUSH2 0x23D SWAP1 DUP5 SWAP1 PUSH2 0x2E2 JUMP JUMPDEST SWAP1 SWAP2 SSTORE POP POP JUMP JUMPDEST PUSH1 0x0 PUSH1 0x20 DUP3 DUP5 SUB SLT ISZERO PUSH2 0x256 JUMPI PUSH1 0x0 DUP1 REVERT JUMPDEST DUP2 CALLDATALOAD PUSH20 0xFFFFFFFFFFFFFFFFFFFFFFFFFFFFFFFFFFFFFFFF DUP2 AND DUP2 EQ PUSH2 0x27A JUMPI PUSH1 0x0 DUP1 REVERT JUMPDEST SWAP4 SWAP3 POP POP POP JUMP JUMPDEST PUSH1 0x0 PUSH1 0x20 DUP3 DUP5 SUB SLT ISZERO PUSH2 0x293 JUMPI PUSH1 0x0 DUP1 REVERT JUMPDEST POP CALLDATALOAD SWAP2 SWAP1 POP JUMP JUMPDEST PUSH32 0x4E487B7100000000000000000000000000000000000000000000000000000000 PUSH1 0x0 MSTORE PUSH1 0x11 PUSH1 0x4 MSTORE PUSH1 0x24 PUSH1 0x0 REVERT JUMPDEST DUP2 DUP2 SUB DUP2 DUP2 GT ISZERO PUSH2 0x2DC JUMPI PUSH2 0x2DC PUSH2 0x29A JUMP JUMPDEST SWAP3 SWAP2 POP POP JUMP JUMPDEST DUP1 DUP3 ADD DUP1 DUP3 GT ISZERO PUSH2 0x2DC JUMPI PUSH2 0x2DC PUSH2 0x29A JUMP INVALID LOG2 PUSH5 0x6970667358 0x22 SLT KECCAK256 PUSH7 0x8ACDF89477414E 0xBD 0x2F CALLDATACOPY DUP2 0xCA 0x29 0x27 0xD4 0x25 PUSH24 0x14174D51C352462D23093243BF9564736F6C634300081800 CALLER "
        },
        "methodIdentifiers": {
          "balances(address)": "27e235e3",
          "deposit()": "d0e30db0",
          "withdraw(uint256)": "2e1a7d4d"
        }
      }
    }
  }
}