{
  "contracts/Lock.sol": {
    "SimpleStorage": {
      "abi": [
        {
          "anonymous": false,
          "inputs": [
            {
              "indexed": true,
              "internalType": "address",
              "name": "sender",
              "type": "address"
            },
            {
              "indexed": false,
              "internalType": "uint256",
              "name": "data",
              "type": "uint256"
            }
          ],
          "name": "DataStored",
          "type": "event"
        },
        {
          "inputs": [],
          "name": "get",
          "outputs": [
            {
              "internalType": "uint256",
              "name": "",
              "type": "uint256"
            }
          ],
          "stateMutability": "view",
          "type": "function"
        },
        {
          "inputs": [
            {
              "internalType": "uint256",
              "name": "x",
              "type": "uint256"
            }
          ],
          "name": "set",
          "outputs": [],
          "stateMutability": "nonpayable",
          "type": "function"
        },
        {
          "inputs": [],
          "name": "storedData",
          "outputs": [
            {
              "internalType": "uint256",
              "name": "",
              "type": "uint256"
            }
          ],
          "stateMutability": "view",
          "type": "function"
        }
      ],
      "evm": {
        "bytecode": {
          "linkReferences": {},
          "object": "608060405234801561001057600080fd5b5060fe8061001f6000396000f3fe6080604052348015600f57600080fd5b5060043610603c5760003560e01c80632a1afcd914604157806360fe47b114605b5780636d4ce63c14606c575b600080fd5b604960005481565b60405190815260200160405180910390f35b606a606636600460b0565b6073565b005b6000546049565b600081905560405181815233907fe42ab83e51dcfb436887e998d12b1585d6eea49b2900b0b3bcd0591dec7c3d199060200160405180910390a250565b60006020828403121560c157600080fd5b503591905056fea264697066735822122098302b08ae56476e11c5e866cd58674c86f5b7f2fed48599a02f4577d48c5f5564736f6c63430008180033",
          "opcodes": "PUSH1 0x80 PUSH1 0x40 MSTORE CALLVALUE DUP1 ISZERO PUSH2 0x10 JUMPI PUSH1 0x0 DUP1 REVERT JUMPDEST POP PUSH1 0xFE DUP1 PUSH2 0x1F PUSH1 0x0 CODECOPY PUSH1 0x0 RETURN INVALID PUSH1 0x80 PUSH1 0x40 MSTORE CALLVALUE DUP1 ISZERO PUSH1 0xF JUMPI PUSH1 0x0 DUP1 REVERT JUMPDEST POP PUSH1 0x4 CALLDATASIZE LT PUSH1 0x3C JUMPI PUSH1 0x0 CALLDATALOAD PUSH1 0xE0 SHR DUP1 PUSH4 0x2A1AFCD9 EQ PUSH1 0x41 JUMPI DUP1 PUSH4 0x60FE47B1 EQ PUSH1 0x5B JUMPI DUP1 PUSH4 0x6D4CE63C EQ PUSH1 0x6C JUMPI JUMPDEST PUSH1 0x0 DUP1 REVERT JUMPDEST PUSH1 0x49 PUSH1 0x0 SLOAD DUP2 JUMP JUMPDEST PUSH1 0x40 MLOAD SWAP1 DUP2 MSTORE PUSH1 0x20 ADD PUSH1 0x40 MLOAD DUP1 SWAP2 SUB SWAP1 RETURN JUMPDEST PUSH1 0x6A PUSH1 0x66 CALLDATASIZE PUSH1 0x4 PUSH1 0xB0 JUMP JUMPDEST PUSH1 0x73 JUMP JUMPDEST STOP JUMPDEST PUSH1 0x0 SLOAD PUSH1 0x49 JUMP JUMPDEST PUSH1 0x0 DUP2 SWAP1 SSTORE PUSH1 0x40 MLOAD DUP2 DUP2 MSTORE CALLER SWAP1 PUSH32 0xE42AB83E51DCFB436887E998D12B1585D6EEA49B2900B0B3BCD0591DEC7C3D19 SWAP1 PUSH1 0x20 ADD PUSH1 0x40 MLOAD DUP1 SWAP2 SUB SWAP1 LOG2 POP JUMP JUMPDEST PUSH1 0x0 PUSH1 0x20 DUP3 DUP5 SUB SLT ISZERO PUSH1 0xC1 JUMPI PUSH1 0x0 DUP1 REVERT JUMPDEST POP CALLDATALOAD SWAP2 SWAP1 POP JUMP INVALID LOG2 PUSH5 0x6970667358 0x22 SLT KECCAK256 SWAP9 ADDRESS 0x2B ADDMOD 0xAE JUMP SELFBALANCE PUSH15 0x11C5E866CD58674C86F5B7F2FED485 SWAP10 LOG0 0x2F GASLIMIT PUSH24 0xD48C5F5564736F6C63430008180033000000000000000000 "
        },
        "methodIdentifiers": {
          "get()": "6d4ce63c",
          "set(uint256)": "60fe47b1",
          "storedData()": "2a1afcd9"
        }
      }
    }
  }
}