{
  "contracts/StringOperator.sol": {
    "StringOperator": {
      "abi": [
        {
          "inputs": [
            {
              "internalType": "string",
              "name": "_a",
              "type": "string"
            },
            {
              "internalType": "string",
              "name": "_b",
              "type": "string"
            }
          ],
          "name": "compareString",
          "outputs": [
            {
              "internalType": "bool",
              "name": "",
              "type": "bool"
            }
          ],
          "stateMutability": "pure",
          "type": "function"
        },
        {
          "inputs": [
            {
              "internalType": "string",
              "name": "_a",
              "type": "string"
            },
            {
              "internalType": "string",
              "name": "_b",
              "type": "string"
            }
          ],
          "name": "concatenateString",
          "outputs": [
            {
              "internalType": "string",
              "name": "",
              "type": "string"
            }
          ],
          "stateMutability": "pure",
          "type": "function"
        }
      ],
      "evm": {
        "bytecode": {
          "linkReferences": {},
          "object": "608060405234801561001057600080fd5b50610329806100206000396000f3fe608060405234801561001057600080fd5b50600436106100365760003560e01c806375b831871461003b578063f7026af114610063575b600080fd5b61004e6100493660046101ed565b610083565b60405190151581526020015b60405180910390f35b6100766100713660046101ed565b610096565b60405161005a9190610275565b600061008f83836100ac565b9392505050565b606060006100a48484610105565b949350505050565b6000816040516020016100bf91906102a8565b60405160208183030381529060405280519060200120836040516020016100e691906102a8565b6040516020818303038152906040528051906020012014905092915050565b6060828260405160200161011a9291906102c4565b604051602081830303815290604052905092915050565b7f4e487b7100000000000000000000000000000000000000000000000000000000600052604160045260246000fd5b600082601f83011261017157600080fd5b813567ffffffffffffffff8082111561018c5761018c610131565b604051601f8301601f19908116603f011681019082821181831017156101b4576101b4610131565b816040528381528660208588010111156101cd57600080fd5b836020870160208301376000602085830101528094505050505092915050565b6000806040838503121561020057600080fd5b823567ffffffffffffffff8082111561021857600080fd5b61022486838701610160565b9350602085013591508082111561023a57600080fd5b5061024785828601610160565b9150509250929050565b60005b8381101561026c578181015183820152602001610254565b50506000910152565b6020815260008251806020840152610294816040850160208701610251565b601f01601f19169190910160400192915050565b600082516102ba818460208701610251565b9190910192915050565b600083516102d6818460208801610251565b8351908301906102ea818360208801610251565b0194935050505056fea26469706673582212206fafcdda9dbaddc347be92a63c52510020297c78bd0c3089582f436fb6ef4a1664736f6c63430008180033",
          "opcodes": "PUSH1 0x80 PUSH1 0x40 MSTORE CALLVALUE DUP1 ISZERO PUSH2 0x10 JUMPI PUSH1 0x0 DUP1 REVERT JUMPDEST POP PUSH2 0x329 DUP1 PUSH2 0x20 PUSH1 0x0 CODECOPY PUSH1 0x0 RETURN INVALID PUSH1 0x80 PUSH1 0x40 MSTORE CALLVALUE DUP1 ISZERO PUSH2 0x10 JUMPI PUSH1 0x0 DUP1 REVERT JUMPDEST POP PUSH1 0x4 CALLDATASIZE LT PUSH2 0x36 JUMPI PUSH1 0x0 CALLDATALOAD PUSH1 0xE0 SHR DUP1 PUSH4 0x75B83187 EQ PUSH2 0x3B JUMPI DUP1 PUSH4 0xF7026AF1 EQ PUSH2 0x63 JUMPI JUMPDEST PUSH1 0x0 DUP1 REVERT JUMPDEST PUSH2 0x4E PUSH2 0x49 CALLDATASIZE PUSH1 0x4 PUSH2 0x1ED JUMP JUMPDEST PUSH2 0x83 JUMP JUMPDEST PUSH1 0x40 MLOAD SWAP1 ISZERO ISZERO DUP2 MSTORE PUSH1 0x20 ADD JUMPDEST PUSH1 0x40 MLOAD DUP1 SWAP2 SUB SWAP1 RETURN JUMPDEST PUSH2 0x76 PUSH2 0x71 CALLDATASIZE PUSH1 0x4 PUSH2 0x1ED JUMP JUMPDEST PUSH2 0x96 JUMP JUMPDEST PUSH1 0x40 MLOAD PUSH2 0x5A SWAP2 SWAP1 PUSH2 0x275 JUMP JUMPDEST PUSH1 0x0 PUSH2 0x8F DUP4 DUP4 PUSH2 0xAC JUMP JUMPDEST SWAP4 SWAP3 POP POP POP JUMP JUMPDEST PUSH1 0x60 PUSH1 0x0 PUSH2 0xA4 DUP5 DUP5 PUSH2 0x105 JUMP JUMPDEST SWAP5 SWAP4 POP POP POP POP JUMP JUMPDEST PUSH1 0x0 DUP2 PUSH1 0x40 MLOAD PUSH1 0x20 ADD PUSH2 0xBF SWAP2 SWAP1 PUSH2 0x2A8 JUMP JUMPDEST PUSH1 0x40 MLOAD PUSH1 0x20 DUP2 DUP4 SUB SUB DUP2 MSTORE SWAP1 PUSH1 0x40 MSTORE DUP1 MLOAD SWAP1 PUSH1 0x20 ADD KECCAK256 DUP4 PUSH1 0x40 MLOAD PUSH1 0x20 ADD PUSH2 0xE6 SWAP2 SWAP1 PUSH2 0x2A8 JUMP JUMPDEST PUSH1 0x40 MLOAD PUSH1 0x20 DUP2 DUP4 SUB SUB DUP2 MSTORE SWAP1 PUSH1 0x40 MSTORE DUP1 MLOAD SWAP1 PUSH1 0x20 ADD KECCAK256 EQ SWAP1 POP SWAP3 SWAP2 POP POP JUMP JUMPDEST PUSH1 0x60 DUP3 DUP3 PUSH1 0x40 MLOAD PUSH1 0x20 ADD PUSH2 0x11A SWAP3 SWAP2 SWAP1 PUSH2 0x2C4 JUMP JUMPDEST PUSH1 0x40 MLOAD PUSH1 0x20 DUP2 DUP4 SUB SUB DUP2 MSTORE SWAP1 PUSH1 0x40 MSTORE SWAP1 POP SWAP3 SWAP2 POP POP JUMP JUMPDEST PUSH32 0x4E487B7100000000000000000000000000000000000000000000000000000000 PUSH1 0x0 MSTORE PUSH1 0x41 PUSH1 0x4 MSTORE PUSH1 0x24 PUSH1 0x0 REVERT JUMPDEST PUSH1 0x0 DUP3 PUSH1 0x1F DUP4 ADD SLT PUSH2 0x171 JUMPI PUSH1 0x0 DUP1 REVERT JUMPDEST DUP2 CALLDATALOAD PUSH8 0xFFFFFFFFFFFFFFFF DUP1 DUP3 GT ISZERO PUSH2 0x18C JUMPI PUSH2 0x18C PUSH2 0x131 JUMP JUMPDEST PUSH1 0x40 MLOAD PUSH1 0x1F DUP4 ADD PUSH1 0x1F NOT SWAP1 DUP2 AND PUSH1 0x3F ADD AND DUP2 ADD SWAP1 DUP3 DUP3 GT DUP2 DUP4 LT OR ISZERO PUSH2 0x1B4 JUMPI PUSH2 0x1B4 PUSH2 0x131 JUMP JUMPDEST DUP2 PUSH1 0x40 MSTORE DUP4 DUP2 MSTORE DUP7 PUSH1 0x20 DUP6 DUP9 ADD ADD GT ISZERO PUSH2 0x1CD JUMPI PUSH1 0x0 DUP1 REVERT JUMPDEST DUP4 PUSH1 0x20 DUP8 ADD PUSH1 0x20 DUP4 ADD CALLDATACOPY PUSH1 0x0 PUSH1 0x20 DUP6 DUP4 ADD ADD MSTORE DUP1 SWAP5 POP POP POP POP POP SWAP3 SWAP2 POP POP JUMP JUMPDEST PUSH1 0x0 DUP1 PUSH1 0x40 DUP4 DUP6 SUB SLT ISZERO PUSH2 0x200 JUMPI PUSH1 0x0 DUP1 REVERT JUMPDEST DUP3 CALLDATALOAD PUSH8 0xFFFFFFFFFFFFFFFF DUP1 DUP3 GT ISZERO PUSH2 0x218 JUMPI PUSH1 0x0 DUP1 REVERT JUMPDEST PUSH2 0x224 DUP7 DUP4 DUP8 ADD PUSH2 0x160 JUMP JUMPDEST SWAP4 POP PUSH1 0x20 DUP6 ADD CALLDATALOAD SWAP2 POP DUP1 DUP3 GT ISZERO PUSH2 0x23A JUMPI PUSH1 0x0 DUP1 REVERT JUMPDEST POP PUSH2 0x247 DUP6 DUP3 DUP7 ADD PUSH2 0x160 JUMP JUMPDEST SWAP2 POP POP SWAP3 POP SWAP3 SWAP1 POP JUMP JUMPDEST PUSH1 0x0 JUMPDEST DUP4 DUP2 LT ISZERO PUSH2 0x26C JUMPI DUP2 DUP2 ADD MLOAD DUP4 DUP3 ADD MSTORE PUSH1 0x20 ADD PUSH2 0x254 JUMP JUMPDEST POP POP PUSH1 0x0 SWAP2 ADD MSTORE JUMP JUMPDEST PUSH1 0x20 DUP2 MSTORE PUSH1 0x0 DUP3 MLOAD DUP1 PUSH1 0x20 DUP5 ADD MSTORE PUSH2 0x294 DUP2 PUSH1 0x40 DUP6 ADD PUSH1 0x20 DUP8 ADD PUSH2 0x251 JUMP JUMPDEST PUSH1 0x1F ADD PUSH1 0x1F NOT AND SWAP2 SWAP1 SWAP2 ADD PUSH1 0x40 ADD SWAP3 SWAP2 POP POP JUMP JUMPDEST PUSH1 0x0 DUP3 MLOAD PUSH2 0x2BA DUP2 DUP5 PUSH1 0x20 DUP8 ADD PUSH2 0x251 JUMP JUMPDEST SWAP2 SWAP1 SWAP2 ADD SWAP3 SWAP2 POP POP JUMP JUMPDEST PUSH1 0x0 DUP4 MLOAD PUSH2 0x2D6 DUP2 DUP5 PUSH1 0x20 DUP9 ADD PUSH2 0x251 JUMP JUMPDEST DUP4 MLOAD SWAP1 DUP4 ADD SWAP1 PUSH2 0x2EA DUP2 DUP4 PUSH1 0x20 DUP9 ADD PUSH2 0x251 JUMP JUMPDEST ADD SWAP5 SWAP4 POP POP POP POP JUMP INVALID LOG2 PUSH5 0x6970667358 0x22 SLT KECCAK256 PUSH16 0xAFCDDA9DBADDC347BE92A63C52510020 0x29 PUSH29 0x78BD0C3089582F436FB6EF4A1664736F6C634300081800330000000000 "
        },
        "methodIdentifiers": {
          "compareString(string,string)": "75b83187",
          "concatenateString(string,string)": "f7026af1"
        }
      }
    }
  }
}