{
  "contracts/InterfaceCalculator.sol": {
    "InterfaceCalculator": {
      "abi": [
        {
          "inputs": [
            {
              "internalType": "uint256",
              "name": "a",
              "type": "uint256"
            },
            {
              "internalType": "uint256",
              "name": "b",
              "type": "uint256"
            }
          ],
          "name": "add",
          "outputs": [
            {
              "internalType": "uint256",
              "name": "",
              "type": "uint256"
            }
          ],
          "stateMutability": "pure",
          "type": "function"
        },
        {
          "inputs": [
            {
              "internalType": "uint256",
              "name": "a",
              "type": "uint256"
            },
            {
              "internalType": "uint256",
              "name": "b",
              "type": "uint256"
            }
          ],
          "name": "subtract",
          "outputs": [
            {
              "internalType": "uint256",
              "name": "",
              "type": "uint256"
            }
          ],
          "stateMutability": "pure",
          "type": "function"
        }
      ],
      "evm": {
        "bytecode": {
          "linkReferences": {},
          "object": "608060405234801561001057600080fd5b5061012a806100206000396000f3fe6080604052348015600f57600080fd5b506004361060325760003560e01c80633ef5e445146037578063771602f7146058575b600080fd5b604660423660046084565b6067565b60405190815260200160405180910390f35b604660633660046084565b607a565b60006071828460d4565b90505b92915050565b60006071828460e4565b60008060408385031215609657600080fd5b50508035926020909101359150565b7f4e487b7100000000000000000000000000000000000000000000000000000000600052601160045260246000fd5b81810381811115607457607460a5565b80820180821115607457607460a556fea26469706673582212202ce181f03eac56ad76c605461650faa5c330dace87d126f188eb33794c0d8b4e64736f6c63430008180033",
          "opcodes": "PUSH1 0x80 PUSH1 0x40 MSTORE CALLVALUE DUP1 ISZERO PUSH2 0x10 JUMPI PUSH1 0x0 DUP1 REVERT JUMPDEST POP PUSH2 0x12A DUP1 PUSH2 0x20 PUSH1 0x0 CODECOPY PUSH1 0x0 RETURN INVALID PUSH1 0x80 PUSH1 0x40 MSTORE CALLVALUE DUP1 ISZERO PUSH1 0xF JUMPI PUSH1 0x0 DUP1 REVERT JUMPDEST POP PUSH1 0x4 CALLDATASIZE LT PUSH1 0x32 JUMPI PUSH1 0x0 CALLDATALOAD PUSH1 0xE0 SHR DUP1 PUSH4 0x3EF5E445 EQ PUSH1 0x37 JUMPI DUP1 PUSH4 0x771602F7 EQ PUSH1 0x58 JUMPI JUMPDEST PUSH1 0x0 DUP1 REVERT JUMPDEST PUSH1 0x46 PUSH1 0x42 CALLDATASIZE PUSH1 0x4 PUSH1 0x84 JUMP JUMPDEST PUSH1 0x67 JUMP JUMPDEST PUSH1 0x40 MLOAD SWAP1 DUP2 MSTORE PUSH1 0x20 ADD PUSH1 0x40 MLOAD DUP1 SWAP2 SUB SWAP1 RETURN JUMPDEST PUSH1 0x46 PUSH1 0x63 CALLDATASIZE PUSH1 0x4 PUSH1 0x84 JUMP JUMPDEST PUSH1 0x7A JUMP JUMPDEST PUSH1 0x0 PUSH1 0x71 DUP3 DUP5 PUSH1 0xD4 JUMP JUMPDEST SWAP1 POP JUMPDEST SWAP3 SWAP2 POP POP JUMP JUMPDEST PUSH1 0x0 PUSH1 0x71 DUP3 DUP5 PUSH1 0xE4 JUMP JUMPDEST PUSH1 0x0 DUP1 PUSH1 0x40 DUP4 DUP6 SUB SLT ISZERO PUSH1 0x96 JUMPI PUSH1 0x0 DUP1 REVERT JUMPDEST POP POP DUP1 CALLDATALOAD SWAP3 PUSH1 0x20 SWAP1 SWAP2 ADD CALLDATALOAD SWAP2 POP JUMP JUMPDEST PUSH32 0x4E487B7100000000000000000000000000000000000000000000000000000000 PUSH1 0x0 MSTORE PUSH1 0x11 PUSH1 0x4 MSTORE PUSH1 0x24 PUSH1 0x0 REVERT JUMPDEST DUP2 DUP2 SUB DUP2 DUP2 GT ISZERO PUSH1 0x74 JUMPI PUSH1 0x74 PUSH1 0xA5 JUMP JUMPDEST DUP1 DUP3 ADD DUP1 DUP3 GT ISZERO PUSH1 0x74 JUMPI PUSH1 0x74 PUSH1 0xA5 JUMP INVALID LOG2 PUSH5 0x6970667358 0x22 SLT KECCAK256 0x2C 0xE1 DUP2 CREATE RETURNDATACOPY 0xAC JUMP 0xAD PUSH23 0xC605461650FAA5C330DACE87D126F188EB33794C0D8B4E PUSH5 0x736F6C6343 STOP ADDMOD XOR STOP CALLER "
        },
        "methodIdentifiers": {
          "add(uint256,uint256)": "771602f7",
          "subtract(uint256,uint256)": "3ef5e445"
        }
      }
    }
  }
}