{
  "contracts/InterfaceCalculator.sol": {
    "InterfaceCalculator": {
      "abi": [
        {
          "inputs": [
            {
              "internalType": "uint256",
              "name": "a",
              "type": "uint256"
            },
            {
              "internalType": "uint256",
              "name": "b",
              "type": "uint256"
            }
          ],
          "name": "add",
          "outputs": [
            {
              "internalType": "uint256",
              "name": "",
              "type": "uint256"
            }
          ],
          "stateMutability": "pure",
          "type": "function"
        },
        {
          "inputs": [
            {
              "internalType": "uint256",
              "name": "a",
              "type": "uint256"
            },
            {
              "internalType": "uint256",
              "name": "b",
              "type": "uint256"
            }
          ],
          "name": "divide",
          "outputs": [
            {
              "internalType": "uint256",
              "name": "",
              "type": "uint256"
            }
          ],
          "stateMutability": "pure",
          "type": "function"
        },
        {
          "inputs": [
            {
              "internalType": "uint256",
              "name": "a",
              "type": "uint256"
            },
            {
              "internalType": "uint256",
              "name": "b",
              "type": "uint256"
            }
          ],
          "name": "multiply",
          "outputs": [
            {
              "internalType": "uint256",
              "name": "",
              "type": "uint256"
            }
          ],
          "stateMutability": "pure",
          "type": "function"
        },
        {
          "inputs": [
            {
              "internalType": "uint256",
              "name": "a",
              "type": "uint256"
            },
            {
              "internalType": "uint256",
              "name": "b",
              "type": "uint256"
            }
          ],
          "name": "subtract",
          "outputs": [
            {
              "internalType": "uint256",
              "name": "",
              "type": "uint256"
            }
          ],
          "stateMutability": "pure",
          "type": "function"
        }
      ],
      "evm": {
        "bytecode": {
          "linkReferences": {},
          "object": "608060405234801561001057600080fd5b506101b5806100206000396000f3fe608060405234801561001057600080fd5b506004361061004c5760003560e01c8063165c4a16146100515780633ef5e44514610076578063771602f714610089578063f88e9fbf1461009c575b600080fd5b61006461005f3660046100e8565b6100af565b60405190815260200160405180910390f35b6100646100843660046100e8565b6100c4565b6100646100973660046100e8565b6100d0565b6100646100aa3660046100e8565b6100dc565b60006100bb8284610120565b90505b92915050565b60006100bb8284610137565b60006100bb828461014a565b60006100bb828461015d565b600080604083850312156100fb57600080fd5b50508035926020909101359150565b634e487b7160e01b600052601160045260246000fd5b80820281158282048414176100be576100be61010a565b818103818111156100be576100be61010a565b808201808211156100be576100be61010a565b60008261017a57634e487b7160e01b600052601260045260246000fd5b50049056fea2646970667358221220c55fa1ee6aee6357c89c2354ad4a8e92dacd91a7d45c9fccadbc2e7113a37bcc64736f6c63430008180033",
          "opcodes": "PUSH1 0x80 PUSH1 0x40 MSTORE CALLVALUE DUP1 ISZERO PUSH2 0x10 JUMPI PUSH1 0x0 DUP1 REVERT JUMPDEST POP PUSH2 0x1B5 DUP1 PUSH2 0x20 PUSH1 0x0 CODECOPY PUSH1 0x0 RETURN INVALID PUSH1 0x80 PUSH1 0x40 MSTORE CALLVALUE DUP1 ISZERO PUSH2 0x10 JUMPI PUSH1 0x0 DUP1 REVERT JUMPDEST POP PUSH1 0x4 CALLDATASIZE LT PUSH2 0x4C JUMPI PUSH1 0x0 CALLDATALOAD PUSH1 0xE0 SHR DUP1 PUSH4 0x165C4A16 EQ PUSH2 0x51 JUMPI DUP1 PUSH4 0x3EF5E445 EQ PUSH2 0x76 JUMPI DUP1 PUSH4 0x771602F7 EQ PUSH2 0x89 JUMPI DUP1 PUSH4 0xF88E9FBF EQ PUSH2 0x9C JUMPI JUMPDEST PUSH1 0x0 DUP1 REVERT JUMPDEST PUSH2 0x64 PUSH2 0x5F CALLDATASIZE PUSH1 0x4 PUSH2 0xE8 JUMP JUMPDEST PUSH2 0xAF JUMP JUMPDEST PUSH1 0x40 MLOAD SWAP1 DUP2 MSTORE PUSH1 0x20 ADD PUSH1 0x40 MLOAD DUP1 SWAP2 SUB SWAP1 RETURN JUMPDEST PUSH2 0x64 PUSH2 0x84 CALLDATASIZE PUSH1 0x4 PUSH2 0xE8 JUMP JUMPDEST PUSH2 0xC4 JUMP JUMPDEST PUSH2 0x64 PUSH2 0x97 CALLDATASIZE PUSH1 0x4 PUSH2 0xE8 JUMP JUMPDEST PUSH2 0xD0 JUMP JUMPDEST PUSH2 0x64 PUSH2 0xAA CALLDATASIZE PUSH1 0x4 PUSH2 0xE8 JUMP JUMPDEST PUSH2 0xDC JUMP JUMPDEST PUSH1 0x0 PUSH2 0xBB DUP3 DUP5 PUSH2 0x120 JUMP JUMPDEST SWAP1 POP JUMPDEST SWAP3 SWAP2 POP POP JUMP JUMPDEST PUSH1 0x0 PUSH2 0xBB DUP3 DUP5 PUSH2 0x137 JUMP JUMPDEST PUSH1 0x0 PUSH2 0xBB DUP3 DUP5 PUSH2 0x14A JUMP JUMPDEST PUSH1 0x0 PUSH2 0xBB DUP3 DUP5 PUSH2 0x15D JUMP JUMPDEST PUSH1 0x0 DUP1 PUSH1 0x40 DUP4 DUP6 SUB SLT ISZERO PUSH2 0xFB JUMPI PUSH1 0x0 DUP1 REVERT JUMPDEST POP POP DUP1 CALLDATALOAD SWAP3 PUSH1 0x20 SWAP1 SWAP2 ADD CALLDATALOAD SWAP2 POP JUMP JUMPDEST PUSH4 0x4E487B71 PUSH1 0xE0 SHL PUSH1 0x0 MSTORE PUSH1 0x11 PUSH1 0x4 MSTORE PUSH1 0x24 PUSH1 0x0 REVERT JUMPDEST DUP1 DUP3 MUL DUP2 ISZERO DUP3 DUP3 DIV DUP5 EQ OR PUSH2 0xBE JUMPI PUSH2 0xBE PUSH2 0x10A JUMP JUMPDEST DUP2 DUP2 SUB DUP2 DUP2 GT ISZERO PUSH2 0xBE JUMPI PUSH2 0xBE PUSH2 0x10A JUMP JUMPDEST DUP1 DUP3 ADD DUP1 DUP3 GT ISZERO PUSH2 0xBE JUMPI PUSH2 0xBE PUSH2 0x10A JUMP JUMPDEST PUSH1 0x0 DUP3 PUSH2 0x17A JUMPI PUSH4 0x4E487B71 PUSH1 0xE0 SHL PUSH1 0x0 MSTORE PUSH1 0x12 PUSH1 0x4 MSTORE PUSH1 0x24 PUSH1 0x0 REVERT JUMPDEST POP DIV SWAP1 JUMP INVALID LOG2 PUSH5 0x6970667358 0x22 SLT KECCAK256 0xC5 PUSH0 LOG1 0xEE PUSH11 0xEE6357C89C2354AD4A8E92 0xDA 0xCD SWAP2 0xA7 0xD4 TLOAD SWAP16 0xCC 0xAD 0xBC 0x2E PUSH18 0x13A37BCC64736F6C63430008180033000000 "
        },
        "methodIdentifiers": {
          "add(uint256,uint256)": "771602f7",
          "divide(uint256,uint256)": "f88e9fbf",
          "multiply(uint256,uint256)": "165c4a16",
          "subtract(uint256,uint256)": "3ef5e445"
        }
      }
    }
  }
}