{
  "contracts/Calculator.sol": {
    "Calculator": {
      "abi": [
        {
          "inputs": [],
          "stateMutability": "nonpayable",
          "type": "constructor"
        },
        {
          "inputs": [],
          "name": "countDown",
          "outputs": [
            {
              "internalType": "uint256",
              "name": "",
              "type": "uint256"
            }
          ],
          "stateMutability": "pure",
          "type": "function"
        },
        {
          "inputs": [],
          "name": "countUp",
          "outputs": [
            {
              "internalType": "uint256",
              "name": "",
              "type": "uint256"
            }
          ],
          "stateMutability": "pure",
          "type": "function"
        },
        {
          "inputs": [
            {
              "internalType": "uint256",
              "name": "first",
              "type": "uint256"
            },
            {
              "internalType": "uint256",
              "name": "second",
              "type": "uint256"
            }
          ],
          "name": "multiplyNumber",
          "outputs": [],
          "stateMutability": "nonpayable",
          "type": "function"
        },
        {
          "inputs": [
            {
              "internalType": "uint256",
              "name": "first",
              "type": "uint256"
            },
            {
              "internalType": "uint256",
              "name": "second",
              "type": "uint256"
            }
          ],
          "name": "subtractNumber",
          "outputs": [],
          "stateMutability": "nonpayable",
          "type": "function"
        }
      ],
      "evm": {
        "bytecode": {
          "linkReferences": {},
          "object": "608060405234801561001057600080fd5b5061027d806100206000396000f3fe608060405234801561001057600080fd5b506004361061004c5760003560e01c80630bd8599e146100515780635fcbd5b61461006b5780639bef0c7014610073578063be2a197114610088575b600080fd5b61005961009b565b60405190815260200160405180910390f35b6100596100c3565b6100866100813660046101a2565b6100f3565b005b6100866100963660046101a2565b610198565b600080805b60058110156100bd576100b381836101f3565b91506001016100a0565b50919050565b60006005815b81156100ed576100d982826101f3565b9050816100e581610206565b9250506100c9565b92915050565b80821015610187576040517f08c379a000000000000000000000000000000000000000000000000000000000815260206004820152602d60248201527f5375627472616374696f6e20776f756c6420726573756c7420696e2061206e6560448201527f676174697665206e756d62657200000000000000000000000000000000000000606482015260840160405180910390fd5b610191818361021d565b6000555050565b6101918183610230565b600080604083850312156101b557600080fd5b50508035926020909101359150565b7f4e487b7100000000000000000000000000000000000000000000000000000000600052601160045260246000fd5b808201808211156100ed576100ed6101c4565b600081610215576102156101c4565b506000190190565b818103818111156100ed576100ed6101c4565b80820281158282048414176100ed576100ed6101c456fea2646970667358221220b54f7c0165305b78a7d1c70d949c153a77006405032ea9b35c3fd43f8361ab7264736f6c63430008180033",
          "opcodes": "PUSH1 0x80 PUSH1 0x40 MSTORE CALLVALUE DUP1 ISZERO PUSH2 0x10 JUMPI PUSH1 0x0 DUP1 REVERT JUMPDEST POP PUSH2 0x27D DUP1 PUSH2 0x20 PUSH1 0x0 CODECOPY PUSH1 0x0 RETURN INVALID PUSH1 0x80 PUSH1 0x40 MSTORE CALLVALUE DUP1 ISZERO PUSH2 0x10 JUMPI PUSH1 0x0 DUP1 REVERT JUMPDEST POP PUSH1 0x4 CALLDATASIZE LT PUSH2 0x4C JUMPI PUSH1 0x0 CALLDATALOAD PUSH1 0xE0 SHR DUP1 PUSH4 0xBD8599E EQ PUSH2 0x51 JUMPI DUP1 PUSH4 0x5FCBD5B6 EQ PUSH2 0x6B JUMPI DUP1 PUSH4 0x9BEF0C70 EQ PUSH2 0x73 JUMPI DUP1 PUSH4 0xBE2A1971 EQ PUSH2 0x88 JUMPI JUMPDEST PUSH1 0x0 DUP1 REVERT JUMPDEST PUSH2 0x59 PUSH2 0x9B JUMP JUMPDEST PUSH1 0x40 MLOAD SWAP1 DUP2 MSTORE PUSH1 0x20 ADD PUSH1 0x40 MLOAD DUP1 SWAP2 SUB SWAP1 RETURN JUMPDEST PUSH2 0x59 PUSH2 0xC3 JUMP JUMPDEST PUSH2 0x86 PUSH2 0x81 CALLDATASIZE PUSH1 0x4 PUSH2 0x1A2 JUMP JUMPDEST PUSH2 0xF3 JUMP JUMPDEST STOP JUMPDEST PUSH2 0x86 PUSH2 0x96 CALLDATASIZE PUSH1 0x4 PUSH2 0x1A2 JUMP JUMPDEST PUSH2 0x198 JUMP JUMPDEST PUSH1 0x0 DUP1 DUP1 JUMPDEST PUSH1 0x5 DUP2 LT ISZERO PUSH2 0xBD JUMPI PUSH2 0xB3 DUP2 DUP4 PUSH2 0x1F3 JUMP JUMPDEST SWAP2 POP PUSH1 0x1 ADD PUSH2 0xA0 JUMP JUMPDEST POP SWAP2 SWAP1 POP JUMP JUMPDEST PUSH1 0x0 PUSH1 0x5 DUP2 JUMPDEST DUP2 ISZERO PUSH2 0xED JUMPI PUSH2 0xD9 DUP3 DUP3 PUSH2 0x1F3 JUMP JUMPDEST SWAP1 POP DUP2 PUSH2 0xE5 DUP2 PUSH2 0x206 JUMP JUMPDEST SWAP3 POP POP PUSH2 0xC9 JUMP JUMPDEST SWAP3 SWAP2 POP POP JUMP JUMPDEST DUP1 DUP3 LT ISZERO PUSH2 0x187 JUMPI PUSH1 0x40 MLOAD PUSH32 0x8C379A000000000000000000000000000000000000000000000000000000000 DUP2 MSTORE PUSH1 0x20 PUSH1 0x4 DUP3 ADD MSTORE PUSH1 0x2D PUSH1 0x24 DUP3 ADD MSTORE PUSH32 0x5375627472616374696F6E20776F756C6420726573756C7420696E2061206E65 PUSH1 0x44 DUP3 ADD MSTORE PUSH32 0x676174697665206E756D62657200000000000000000000000000000000000000 PUSH1 0x64 DUP3 ADD MSTORE PUSH1 0x84 ADD PUSH1 0x40 MLOAD DUP1 SWAP2 SUB SWAP1 REVERT JUMPDEST PUSH2 0x191 DUP2 DUP4 PUSH2 0x21D JUMP JUMPDEST PUSH1 0x0 SSTORE POP POP JUMP JUMPDEST PUSH2 0x191 DUP2 DUP4 PUSH2 0x230 JUMP JUMPDEST PUSH1 0x0 DUP1 PUSH1 0x40 DUP4 DUP6 SUB SLT ISZERO PUSH2 0x1B5 JUMPI PUSH1 0x0 DUP1 REVERT JUMPDEST POP POP DUP1 CALLDATALOAD SWAP3 PUSH1 0x20 SWAP1 SWAP2 ADD CALLDATALOAD SWAP2 POP JUMP JUMPDEST PUSH32 0x4E487B7100000000000000000000000000000000000000000000000000000000 PUSH1 0x0 MSTORE PUSH1 0x11 PUSH1 0x4 MSTORE PUSH1 0x24 PUSH1 0x0 REVERT JUMPDEST DUP1 DUP3 ADD DUP1 DUP3 GT ISZERO PUSH2 0xED JUMPI PUSH2 0xED PUSH2 0x1C4 JUMP JUMPDEST PUSH1 0x0 DUP2 PUSH2 0x215 JUMPI PUSH2 0x215 PUSH2 0x1C4 JUMP JUMPDEST POP PUSH1 0x0 NOT ADD SWAP1 JUMP JUMPDEST DUP2 DUP2 SUB DUP2 DUP2 GT ISZERO PUSH2 0xED JUMPI PUSH2 0xED PUSH2 0x1C4 JUMP JUMPDEST DUP1 DUP3 MUL DUP2 ISZERO DUP3 DUP3 DIV DUP5 EQ OR PUSH2 0xED JUMPI PUSH2 0xED PUSH2 0x1C4 JUMP INVALID LOG2 PUSH5 0x6970667358 0x22 SLT KECCAK256 0xB5 0x4F PUSH29 0x165305B78A7D1C70D949C153A77006405032EA9B35C3FD43F8361AB72 PUSH5 0x736F6C6343 STOP ADDMOD XOR STOP CALLER "
        },
        "methodIdentifiers": {
          "countDown()": "5fcbd5b6",
          "countUp()": "0bd8599e",
          "multiplyNumber(uint256,uint256)": "be2a1971",
          "subtractNumber(uint256,uint256)": "9bef0c70"
        }
      }
    }
  }
}