{
  "contracts/Calculator.sol": {
    "Calculator": {
      "abi": [
        {
          "inputs": [],
          "stateMutability": "nonpayable",
          "type": "constructor"
        },
        {
          "inputs": [
            {
              "internalType": "uint256",
              "name": "first",
              "type": "uint256"
            },
            {
              "internalType": "uint256",
              "name": "second",
              "type": "uint256"
            }
          ],
          "name": "addNumber",
          "outputs": [],
          "stateMutability": "nonpayable",
          "type": "function"
        },
        {
          "inputs": [
            {
              "internalType": "uint256",
              "name": "first",
              "type": "uint256"
            },
            {
              "internalType": "uint256",
              "name": "second",
              "type": "uint256"
            }
          ],
          "name": "multiplyNumber",
          "outputs": [],
          "stateMutability": "nonpayable",
          "type": "function"
        },
        {
          "inputs": [],
          "name": "result",
          "outputs": [
            {
              "internalType": "uint256",
              "name": "",
              "type": "uint256"
            }
          ],
          "stateMutability": "view",
          "type": "function"
        },
        {
          "inputs": [
            {
              "internalType": "uint256",
              "name": "first",
              "type": "uint256"
            },
            {
              "internalType": "uint256",
              "name": "second",
              "type": "uint256"
            }
          ],
          "name": "subtractNumber",
          "outputs": [],
          "stateMutability": "nonpayable",
          "type": "function"
        }
      ],
      "evm": {
        "bytecode": {
          "linkReferences": {},
          "object": "608060405234801561001057600080fd5b5061022a806100206000396000f3fe608060405234801561001057600080fd5b506004361061004c5760003560e01c80630f3d02041461005157806365372147146100665780639bef0c7014610081578063be2a197114610094575b600080fd5b61006461005f366004610160565b6100a7565b005b61006f60005481565b60405190815260200160405180910390f35b61006461008f366004610160565b6100b8565b6100646100a2366004610160565b610156565b6100b181836101b1565b6000555050565b8082101561014c576040517f08c379a000000000000000000000000000000000000000000000000000000000815260206004820152602d60248201527f5375627472616374696f6e20776f756c6420726573756c7420696e2061206e6560448201527f676174697665206e756d62657200000000000000000000000000000000000000606482015260840160405180910390fd5b6100b181836101ca565b6100b181836101dd565b6000806040838503121561017357600080fd5b50508035926020909101359150565b7f4e487b7100000000000000000000000000000000000000000000000000000000600052601160045260246000fd5b808201808211156101c4576101c4610182565b92915050565b818103818111156101c4576101c4610182565b80820281158282048414176101c4576101c461018256fea2646970667358221220c586f1f441ad66808e21bd2c7ab5f0c2e6f13f9279bc9b280d80cc00a0fef80664736f6c63430008180033",
          "opcodes": "PUSH1 0x80 PUSH1 0x40 MSTORE CALLVALUE DUP1 ISZERO PUSH2 0x10 JUMPI PUSH1 0x0 DUP1 REVERT JUMPDEST POP PUSH2 0x22A DUP1 PUSH2 0x20 PUSH1 0x0 CODECOPY PUSH1 0x0 RETURN INVALID PUSH1 0x80 PUSH1 0x40 MSTORE CALLVALUE DUP1 ISZERO PUSH2 0x10 JUMPI PUSH1 0x0 DUP1 REVERT JUMPDEST POP PUSH1 0x4 CALLDATASIZE LT PUSH2 0x4C JUMPI PUSH1 0x0 CALLDATALOAD PUSH1 0xE0 SHR DUP1 PUSH4 0xF3D0204 EQ PUSH2 0x51 JUMPI DUP1 PUSH4 0x65372147 EQ PUSH2 0x66 JUMPI DUP1 PUSH4 0x9BEF0C70 EQ PUSH2 0x81 JUMPI DUP1 PUSH4 0xBE2A1971 EQ PUSH2 0x94 JUMPI JUMPDEST PUSH1 0x0 DUP1 REVERT JUMPDEST PUSH2 0x64 PUSH2 0x5F CALLDATASIZE PUSH1 0x4 PUSH2 0x160 JUMP JUMPDEST PUSH2 0xA7 JUMP JUMPDEST STOP JUMPDEST PUSH2 0x6F PUSH1 0x0 SLOAD DUP2 JUMP JUMPDEST PUSH1 0x40 MLOAD SWAP1 DUP2 MSTORE PUSH1 0x20 ADD PUSH1 0x40 MLOAD DUP1 SWAP2 SUB SWAP1 RETURN JUMPDEST PUSH2 0x64 PUSH2 0x8F CALLDATASIZE PUSH1 0x4 PUSH2 0x160 JUMP JUMPDEST PUSH2 0xB8 JUMP JUMPDEST PUSH2 0x64 PUSH2 0xA2 CALLDATASIZE PUSH1 0x4 PUSH2 0x160 JUMP JUMPDEST PUSH2 0x156 JUMP JUMPDEST PUSH2 0xB1 DUP2 DUP4 PUSH2 0x1B1 JUMP JUMPDEST PUSH1 0x0 SSTORE POP POP JUMP JUMPDEST DUP1 DUP3 LT ISZERO PUSH2 0x14C JUMPI PUSH1 0x40 MLOAD PUSH32 0x8C379A000000000000000000000000000000000000000000000000000000000 DUP2 MSTORE PUSH1 0x20 PUSH1 0x4 DUP3 ADD MSTORE PUSH1 0x2D PUSH1 0x24 DUP3 ADD MSTORE PUSH32 0x5375627472616374696F6E20776F756C6420726573756C7420696E2061206E65 PUSH1 0x44 DUP3 ADD MSTORE PUSH32 0x676174697665206E756D62657200000000000000000000000000000000000000 PUSH1 0x64 DUP3 ADD MSTORE PUSH1 0x84 ADD PUSH1 0x40 MLOAD DUP1 SWAP2 SUB SWAP1 REVERT JUMPDEST PUSH2 0xB1 DUP2 DUP4 PUSH2 0x1CA JUMP JUMPDEST PUSH2 0xB1 DUP2 DUP4 PUSH2 0x1DD JUMP JUMPDEST PUSH1 0x0 DUP1 PUSH1 0x40 DUP4 DUP6 SUB SLT ISZERO PUSH2 0x173 JUMPI PUSH1 0x0 DUP1 REVERT JUMPDEST POP POP DUP1 CALLDATALOAD SWAP3 PUSH1 0x20 SWAP1 SWAP2 ADD CALLDATALOAD SWAP2 POP JUMP JUMPDEST PUSH32 0x4E487B7100000000000000000000000000000000000000000000000000000000 PUSH1 0x0 MSTORE PUSH1 0x11 PUSH1 0x4 MSTORE PUSH1 0x24 PUSH1 0x0 REVERT JUMPDEST DUP1 DUP3 ADD DUP1 DUP3 GT ISZERO PUSH2 0x1C4 JUMPI PUSH2 0x1C4 PUSH2 0x182 JUMP JUMPDEST SWAP3 SWAP2 POP POP JUMP JUMPDEST DUP2 DUP2 SUB DUP2 DUP2 GT ISZERO PUSH2 0x1C4 JUMPI PUSH2 0x1C4 PUSH2 0x182 JUMP JUMPDEST DUP1 DUP3 MUL DUP2 ISZERO DUP3 DUP3 DIV DUP5 EQ OR PUSH2 0x1C4 JUMPI PUSH2 0x1C4 PUSH2 0x182 JUMP INVALID LOG2 PUSH5 0x6970667358 0x22 SLT KECCAK256 0xC5 DUP7 CALL DELEGATECALL COINBASE 0xAD PUSH7 0x808E21BD2C7AB5 CREATE 0xC2 0xE6 CALL EXTCODEHASH SWAP3 PUSH26 0xBC9B280D80CC00A0FEF80664736F6C6343000818003300000000 "
        },
        "methodIdentifiers": {
          "addNumber(uint256,uint256)": "0f3d0204",
          "multiplyNumber(uint256,uint256)": "be2a1971",
          "result()": "65372147",
          "subtractNumber(uint256,uint256)": "9bef0c70"
        }
      }
    }
  }
}