{
  "_format": "hh-sol-artifact-1",
  "contractName": "MathExample",
  "sourceName": "contracts/MathExample.sol",
  "abi": [
    {
      "inputs": [
        {
          "internalType": "uint256",
          "name": "a",
          "type": "uint256"
        },
        {
          "internalType": "uint256",
          "name": "b",
          "type": "uint256"
        }
      ],
      "name": "calculate",
      "outputs": [
        {
          "internalType": "uint256",
          "name": "",
          "type": "uint256"
        }
      ],
      "stateMutability": "pure",
      "type": "function"
    }
  ],
  "bytecode": "0x608060405234801561001057600080fd5b5060fb8061001f6000396000f3fe6080604052348015600f57600080fd5b506004361060285760003560e01c80638dfa436314602d575b600080fd5b603c6038366004606b565b604e565b60405190815260200160405180910390f35b6000605883836061565b90505b92915050565b600060588284608c565b60008060408385031215607d57600080fd5b50508035926020909101359150565b80820180821115605b577f4e487b7100000000000000000000000000000000000000000000000000000000600052601160045260246000fdfea2646970667358221220e0512f0e2164da92fd04a2b906d59c9e0a136af0e0fc0edfcc7ff58c5553f77164736f6c63430008180033",
  "linkReferences": {},
  "deployedLinkReferences": {}
}