{
  "_format": "hh-sol-artifact-1",
  "contractName": "StringOperator",
  "sourceName": "contracts/StringOperator.sol",
  "abi": [
    {
      "inputs": [
        {
          "internalType": "string",
          "name": "_a",
          "type": "string"
        },
        {
          "internalType": "string",
          "name": "_b",
          "type": "string"
        }
      ],
      "name": "compareString",
      "outputs": [
        {
          "internalType": "bool",
          "name": "",
          "type": "bool"
        }
      ],
      "stateMutability": "pure",
      "type": "function"
    },
    {
      "inputs": [
        {
          "internalType": "string",
          "name": "_a",
          "type": "string"
        },
        {
          "internalType": "string",
          "name": "_b",
          "type": "string"
        }
      ],
      "name": "concatenateString",
      "outputs": [
        {
          "internalType": "string",
          "name": "",
          "type": "string"
        }
      ],
      "stateMutability": "pure",
      "type": "function"
    }
  ],
  "bytecode": "0x608060405234801561001057600080fd5b50610329806100206000396000f3fe608060405234801561001057600080fd5b50600436106100365760003560e01c806375b831871461003b578063f7026af114610063575b600080fd5b61004e6100493660046101ed565b610083565b60405190151581526020015b60405180910390f35b6100766100713660046101ed565b610096565b60405161005a9190610275565b600061008f83836100ac565b9392505050565b606060006100a48484610105565b949350505050565b6000816040516020016100bf91906102a8565b60405160208183030381529060405280519060200120836040516020016100e691906102a8565b6040516020818303038152906040528051906020012014905092915050565b6060828260405160200161011a9291906102c4565b604051602081830303815290604052905092915050565b7f4e487b7100000000000000000000000000000000000000000000000000000000600052604160045260246000fd5b600082601f83011261017157600080fd5b813567ffffffffffffffff8082111561018c5761018c610131565b604051601f8301601f19908116603f011681019082821181831017156101b4576101b4610131565b816040528381528660208588010111156101cd57600080fd5b836020870160208301376000602085830101528094505050505092915050565b6000806040838503121561020057600080fd5b823567ffffffffffffffff8082111561021857600080fd5b61022486838701610160565b9350602085013591508082111561023a57600080fd5b5061024785828601610160565b9150509250929050565b60005b8381101561026c578181015183820152602001610254565b50506000910152565b6020815260008251806020840152610294816040850160208701610251565b601f01601f19169190910160400192915050565b600082516102ba818460208701610251565b9190910192915050565b600083516102d6818460208801610251565b8351908301906102ea818360208801610251565b0194935050505056fea26469706673582212206fafcdda9dbaddc347be92a63c52510020297c78bd0c3089582f436fb6ef4a1664736f6c63430008180033",
  "linkReferences": {},
  "deployedLinkReferences": {}
}