{
  "_format": "hh-sol-artifact-1",
  "contractName": "Calculator",
  "sourceName": "contracts/Calculator.sol",
  "abi": [
    {
      "inputs": [],
      "stateMutability": "nonpayable",
      "type": "constructor"
    },
    {
      "inputs": [
        {
          "internalType": "uint256",
          "name": "first",
          "type": "uint256"
        },
        {
          "internalType": "uint256",
          "name": "second",
          "type": "uint256"
        }
      ],
      "name": "addNumber",
      "outputs": [],
      "stateMutability": "nonpayable",
      "type": "function"
    },
    {
      "inputs": [
        {
          "internalType": "uint256",
          "name": "first",
          "type": "uint256"
        },
        {
          "internalType": "uint256",
          "name": "second",
          "type": "uint256"
        }
      ],
      "name": "multiplyNumber",
      "outputs": [],
      "stateMutability": "nonpayable",
      "type": "function"
    },
    {
      "inputs": [],
      "name": "result",
      "outputs": [
        {
          "internalType": "uint256",
          "name": "",
          "type": "uint256"
        }
      ],
      "stateMutability": "view",
      "type": "function"
    },
    {
      "inputs": [
        {
          "internalType": "uint256",
          "name": "first",
          "type": "uint256"
        },
        {
          "internalType": "uint256",
          "name": "second",
          "type": "uint256"
        }
      ],
      "name": "subtractNumber",
      "outputs": [],
      "stateMutability": "nonpayable",
      "type": "function"
    }
  ],
  "bytecode": "0x608060405234801561001057600080fd5b5061022a806100206000396000f3fe608060405234801561001057600080fd5b506004361061004c5760003560e01c80630f3d02041461005157806365372147146100665780639bef0c7014610081578063be2a197114610094575b600080fd5b61006461005f366004610160565b6100a7565b005b61006f60005481565b60405190815260200160405180910390f35b61006461008f366004610160565b6100b8565b6100646100a2366004610160565b610156565b6100b181836101b1565b6000555050565b8082101561014c576040517f08c379a000000000000000000000000000000000000000000000000000000000815260206004820152602d60248201527f5375627472616374696f6e20776f756c6420726573756c7420696e2061206e6560448201527f676174697665206e756d62657200000000000000000000000000000000000000606482015260840160405180910390fd5b6100b181836101ca565b6100b181836101dd565b6000806040838503121561017357600080fd5b50508035926020909101359150565b7f4e487b7100000000000000000000000000000000000000000000000000000000600052601160045260246000fd5b808201808211156101c4576101c4610182565b92915050565b818103818111156101c4576101c4610182565b80820281158282048414176101c4576101c461018256fea2646970667358221220c586f1f441ad66808e21bd2c7ab5f0c2e6f13f9279bc9b280d80cc00a0fef80664736f6c63430008180033",
  "linkReferences": {},
  "deployedLinkReferences": {}
}