{
  "_format": "hh-sol-artifact-1",
  "contractName": "Calculator",
  "sourceName": "contracts/Calculator.sol",
  "abi": [
    {
      "inputs": [],
      "stateMutability": "nonpayable",
      "type": "constructor"
    },
    {
      "inputs": [],
      "name": "countDown",
      "outputs": [
        {
          "internalType": "uint256",
          "name": "",
          "type": "uint256"
        }
      ],
      "stateMutability": "pure",
      "type": "function"
    },
    {
      "inputs": [],
      "name": "countUp",
      "outputs": [
        {
          "internalType": "uint256",
          "name": "",
          "type": "uint256"
        }
      ],
      "stateMutability": "pure",
      "type": "function"
    },
    {
      "inputs": [
        {
          "internalType": "uint256",
          "name": "first",
          "type": "uint256"
        },
        {
          "internalType": "uint256",
          "name": "second",
          "type": "uint256"
        }
      ],
      "name": "multiplyNumber",
      "outputs": [],
      "stateMutability": "nonpayable",
      "type": "function"
    },
    {
      "inputs": [
        {
          "internalType": "uint256",
          "name": "first",
          "type": "uint256"
        },
        {
          "internalType": "uint256",
          "name": "second",
          "type": "uint256"
        }
      ],
      "name": "subtractNumber",
      "outputs": [],
      "stateMutability": "nonpayable",
      "type": "function"
    }
  ],
  "bytecode": "0x608060405234801561001057600080fd5b5061027d806100206000396000f3fe608060405234801561001057600080fd5b506004361061004c5760003560e01c80630bd8599e146100515780635fcbd5b61461006b5780639bef0c7014610073578063be2a197114610088575b600080fd5b61005961009b565b60405190815260200160405180910390f35b6100596100c3565b6100866100813660046101a2565b6100f3565b005b6100866100963660046101a2565b610198565b600080805b60058110156100bd576100b381836101f3565b91506001016100a0565b50919050565b60006005815b81156100ed576100d982826101f3565b9050816100e581610206565b9250506100c9565b92915050565b80821015610187576040517f08c379a000000000000000000000000000000000000000000000000000000000815260206004820152602d60248201527f5375627472616374696f6e20776f756c6420726573756c7420696e2061206e6560448201527f676174697665206e756d62657200000000000000000000000000000000000000606482015260840160405180910390fd5b610191818361021d565b6000555050565b6101918183610230565b600080604083850312156101b557600080fd5b50508035926020909101359150565b7f4e487b7100000000000000000000000000000000000000000000000000000000600052601160045260246000fd5b808201808211156100ed576100ed6101c4565b600081610215576102156101c4565b506000190190565b818103818111156100ed576100ed6101c4565b80820281158282048414176100ed576100ed6101c456fea2646970667358221220b54f7c0165305b78a7d1c70d949c153a77006405032ea9b35c3fd43f8361ab7264736f6c63430008180033",
  "linkReferences": {},
  "deployedLinkReferences": {}
}