{
  "contracts/BasicCalculator.sol": {
    "AdvancedCalculator": {
      "abi": [
        {
          "inputs": [],
          "name": "getResult",
          "outputs": [
            {
              "internalType": "uint256",
              "name": "",
              "type": "uint256"
            }
          ],
          "stateMutability": "view",
          "type": "function"
        },
        {
          "inputs": [
            {
              "internalType": "uint256",
              "name": "a",
              "type": "uint256"
            },
            {
              "internalType": "uint256",
              "name": "b",
              "type": "uint256"
            },
            {
              "internalType": "uint8",
              "name": "operation",
              "type": "uint8"
            }
          ],
          "name": "performOperation",
          "outputs": [],
          "stateMutability": "nonpayable",
          "type": "function"
        }
      ],
      "evm": {
        "bytecode": {
          "linkReferences": {},
          "object": "608060405234801561001057600080fd5b5061029d806100206000396000f3fe608060405234801561001057600080fd5b50600436106100365760003560e01c8063d595b5b71461003b578063de29278914610050575b600080fd5b61004e610049366004610197565b610065565b005b60005460405190815260200160405180910390f35b8060ff1660010361007f5761007a8383610124565b505050565b8060ff166002036100945761007a8383610135565b8060ff166003036100a95761007a838361014f565b8060ff166004036100be5761007a8383610173565b6040517f08c379a000000000000000000000000000000000000000000000000000000000815260206004820152600660248201527f756e6b6f776e0000000000000000000000000000000000000000000000000000604482015260640160405180910390fd5b61012e81836101ec565b6000555050565b8082101561014557610145610205565b61012e818361021b565b811580159061015d57508015155b61016957610169610205565b61012e818361022e565b811580159061018157508015155b61018d5761018d610205565b61012e8183610245565b6000806000606084860312156101ac57600080fd5b8335925060208401359150604084013560ff811681146101cb57600080fd5b809150509250925092565b634e487b7160e01b600052601160045260246000fd5b808201808211156101ff576101ff6101d6565b92915050565b634e487b7160e01b600052600160045260246000fd5b818103818111156101ff576101ff6101d6565b80820281158282048414176101ff576101ff6101d6565b60008261026257634e487b7160e01b600052601260045260246000fd5b50049056fea264697066735822122021d9c321cdeae6e9606293e6ccdd9f434a5892cc57c6ff25c4a5a8d0cb62dd6764736f6c63430008180033",
          "opcodes": "PUSH1 0x80 PUSH1 0x40 MSTORE CALLVALUE DUP1 ISZERO PUSH2 0x10 JUMPI PUSH1 0x0 DUP1 REVERT JUMPDEST POP PUSH2 0x29D DUP1 PUSH2 0x20 PUSH1 0x0 CODECOPY PUSH1 0x0 RETURN INVALID PUSH1 0x80 PUSH1 0x40 MSTORE CALLVALUE DUP1 ISZERO PUSH2 0x10 JUMPI PUSH1 0x0 DUP1 REVERT JUMPDEST POP PUSH1 0x4 CALLDATASIZE LT PUSH2 0x36 JUMPI PUSH1 0x0 CALLDATALOAD PUSH1 0xE0 SHR DUP1 PUSH4 0xD595B5B7 EQ PUSH2 0x3B JUMPI DUP1 PUSH4 0xDE292789 EQ PUSH2 0x50 JUMPI JUMPDEST PUSH1 0x0 DUP1 REVERT JUMPDEST PUSH2 0x4E PUSH2 0x49 CALLDATASIZE PUSH1 0x4 PUSH2 0x197 JUMP JUMPDEST PUSH2 0x65 JUMP JUMPDEST STOP JUMPDEST PUSH1 0x0 SLOAD PUSH1 0x40 MLOAD SWAP1 DUP2 MSTORE PUSH1 0x20 ADD PUSH1 0x40 MLOAD DUP1 SWAP2 SUB SWAP1 RETURN JUMPDEST DUP1 PUSH1 0xFF AND PUSH1 0x1 SUB PUSH2 0x7F JUMPI PUSH2 0x7A DUP4 DUP4 PUSH2 0x124 JUMP JUMPDEST POP POP POP JUMP JUMPDEST DUP1 PUSH1 0xFF AND PUSH1 0x2 SUB PUSH2 0x94 JUMPI PUSH2 0x7A DUP4 DUP4 PUSH2 0x135 JUMP JUMPDEST DUP1 PUSH1 0xFF AND PUSH1 0x3 SUB PUSH2 0xA9 JUMPI PUSH2 0x7A DUP4 DUP4 PUSH2 0x14F JUMP JUMPDEST DUP1 PUSH1 0xFF AND PUSH1 0x4 SUB PUSH2 0xBE JUMPI PUSH2 0x7A DUP4 DUP4 PUSH2 0x173 JUMP JUMPDEST PUSH1 0x40 MLOAD PUSH32 0x8C379A000000000000000000000000000000000000000000000000000000000 DUP2 MSTORE PUSH1 0x20 PUSH1 0x4 DUP3 ADD MSTORE PUSH1 0x6 PUSH1 0x24 DUP3 ADD MSTORE PUSH32 0x756E6B6F776E0000000000000000000000000000000000000000000000000000 PUSH1 0x44 DUP3 ADD MSTORE PUSH1 0x64 ADD PUSH1 0x40 MLOAD DUP1 SWAP2 SUB SWAP1 REVERT JUMPDEST PUSH2 0x12E DUP2 DUP4 PUSH2 0x1EC JUMP JUMPDEST PUSH1 0x0 SSTORE POP POP JUMP JUMPDEST DUP1 DUP3 LT ISZERO PUSH2 0x145 JUMPI PUSH2 0x145 PUSH2 0x205 JUMP JUMPDEST PUSH2 0x12E DUP2 DUP4 PUSH2 0x21B JUMP JUMPDEST DUP2 ISZERO DUP1 ISZERO SWAP1 PUSH2 0x15D JUMPI POP DUP1 ISZERO ISZERO JUMPDEST PUSH2 0x169 JUMPI PUSH2 0x169 PUSH2 0x205 JUMP JUMPDEST PUSH2 0x12E DUP2 DUP4 PUSH2 0x22E JUMP JUMPDEST DUP2 ISZERO DUP1 ISZERO SWAP1 PUSH2 0x181 JUMPI POP DUP1 ISZERO ISZERO JUMPDEST PUSH2 0x18D JUMPI PUSH2 0x18D PUSH2 0x205 JUMP JUMPDEST PUSH2 0x12E DUP2 DUP4 PUSH2 0x245 JUMP JUMPDEST PUSH1 0x0 DUP1 PUSH1 0x0 PUSH1 0x60 DUP5 DUP7 SUB SLT ISZERO PUSH2 0x1AC JUMPI PUSH1 0x0 DUP1 REVERT JUMPDEST DUP4 CALLDATALOAD SWAP3 POP PUSH1 0x20 DUP5 ADD CALLDATALOAD SWAP2 POP PUSH1 0x40 DUP5 ADD CALLDATALOAD PUSH1 0xFF DUP2 AND DUP2 EQ PUSH2 0x1CB JUMPI PUSH1 0x0 DUP1 REVERT JUMPDEST DUP1 SWAP2 POP POP SWAP3 POP SWAP3 POP SWAP3 JUMP JUMPDEST PUSH4 0x4E487B71 PUSH1 0xE0 SHL PUSH1 0x0 MSTORE PUSH1 0x11 PUSH1 0x4 MSTORE PUSH1 0x24 PUSH1 0x0 REVERT JUMPDEST DUP1 DUP3 ADD DUP1 DUP3 GT ISZERO PUSH2 0x1FF JUMPI PUSH2 0x1FF PUSH2 0x1D6 JUMP JUMPDEST SWAP3 SWAP2 POP POP JUMP JUMPDEST PUSH4 0x4E487B71 PUSH1 0xE0 SHL PUSH1 0x0 MSTORE PUSH1 0x1 PUSH1 0x4 MSTORE PUSH1 0x24 PUSH1 0x0 REVERT JUMPDEST DUP2 DUP2 SUB DUP2 DUP2 GT ISZERO PUSH2 0x1FF JUMPI PUSH2 0x1FF PUSH2 0x1D6 JUMP JUMPDEST DUP1 DUP3 MUL DUP2 ISZERO DUP3 DUP3 DIV DUP5 EQ OR PUSH2 0x1FF JUMPI PUSH2 0x1FF PUSH2 0x1D6 JUMP JUMPDEST PUSH1 0x0 DUP3 PUSH2 0x262 JUMPI PUSH4 0x4E487B71 PUSH1 0xE0 SHL PUSH1 0x0 MSTORE PUSH1 0x12 PUSH1 0x4 MSTORE PUSH1 0x24 PUSH1 0x0 REVERT JUMPDEST POP DIV SWAP1 JUMP INVALID LOG2 PUSH5 0x6970667358 0x22 SLT KECCAK256 0x21 0xD9 0xC3 0x21 0xCD 0xEA 0xE6 0xE9 PUSH1 0x62 SWAP4 0xE6 0xCC 0xDD SWAP16 NUMBER BLOBBASEFEE PC SWAP3 0xCC JUMPI 0xC6 SELFDESTRUCT 0x25 0xC4 0xA5 0xA8 0xD0 0xCB PUSH3 0xDD6764 PUSH20 0x6F6C634300081800330000000000000000000000 "
        },
        "methodIdentifiers": {
          "getResult()": "de292789",
          "performOperation(uint256,uint256,uint8)": "d595b5b7"
        }
      }
    }
  }
}